:100000000C9462000C948A000C948A000C948A0070
:100010000C948A000C948A000C948A000C948A0038
:100020000C948A000C948A000C948A000C948A0028
:100030000C948A000C948A000C948A000C948A0018
:100040000C94EA000C948A000C94BD030C94EA030F
:100050000C948A000C948A000C948A000C948A00F8
:100060000C948A000C948A00000000080002010031
:100070000003040700000000000000000102040863
:100080001020408001020408102001020408102002
:10009000040404040404040402020202020203032E
:1000A00003030303000000002300260029000000D2
:1000B0000000250028002B0000000000240027007D
:1000C0002A001A0411241FBECFEFD8E0DEBFCDBF37
:1000D00011E0A0E0B1E0E6E3FBE002C005900D9284
:1000E000A631B107D9F721E0A6E1B1E001C01D9228
:1000F000AE3BB207E1F710E0C2E6D0E004C02197C2
:10010000FE010E949305C136D107C9F70E9461051F
:100110000C9499050C94000026E040E855E260E05C
:1001200070E081E291E00E945B0360E082E00E9467
:10013000F20161E086E00E94F20161E085E00E9448
:10014000F20161E084E00C94F20182E00E945B0223
:100150006091160170911701680F791F7093170154
:10016000609316014AE050E081E291E00E944C0564
:100170008091160190911701009791F461E086E05B
:100180000E942C0260E085E00E942C0260E084E086
:100190000E942C0268EC70E080E090E00C94570123
:1001A0008130910531F460E086E00E942C0261E02C
:1001B000EACF029751F460E086E00E942C0260E0F2
:1001C00085E00E942C0261E0E2CF109217011092AC
:1001D0001601E0CF1F921FB61F9211242F933F9359
:1001E0008F939F93AF93BF938091190190911A01C0
:1001F000A0911B01B0911C013091180123E0230F45
:100200002D3750F50196A11DB11D20931801809343
:10021000190190931A01A0931B01B0931C018091C6
:100220001D0190911E01A0911F01B0912001019626
:10023000A11DB11D80931D0190931E01A0931F016C
:10024000B0932001BF91AF919F918F913F912F91DA
:100250001F901FBE1F90189526E8230F0296A11D20
:10026000B11DD3CF3FB7F89480911D0190911E012D
:10027000A0911F01B091200126B5A89B05C02F3F7A
:1002800019F00196A11DB11D3FBFBA2FA92F982FBC
:100290008827BC01CD01620F711D811D911D42E0B7
:1002A000660F771F881F991F4A95D1F708958F927F
:1002B0009F92AF92BF92CF92DF92EF92FF926B012B
:1002C0007C010E9432014B015C01C114D104E104A4
:1002D000F104E9F00E9470050E9432016819790961
:1002E0008A099B09683E73408105910570F321E0FE
:1002F000C21AD108E108F10888EE880E83E0981E42
:10030000A11CB11CC114D104E104F10429F7FF9030
:10031000EF90DF90CF90BF90AF909F908F90089517
:10032000789484B5826084BD84B5816084BD85B5D0
:10033000826085BD85B5816085BDEEE6F0E0808197
:1003400081608083E1E8F0E01082808182608083B8
:10035000808181608083E0E8F0E08081816080833B
:10036000E1EBF0E0808184608083E0EBF0E080816D
:1003700081608083EAE7F0E080818460808380810F
:1003800082608083808181608083808180688083B7
:100390001092C1000895843081F050F48230A9F0A9
:1003A000833079F4809180008F7780938000089566
:1003B000873071F0883091F00895809180008F7DB2
:1003C000F4CF84B58F7784BD089584B58F7DFBCF3E
:1003D0008091B0008F778093B00008958091B00035
:1003E0008F7DF9CFCF93DF9390E0FC01E458FF4F6E
:1003F000249180579F4FFC0184918115C9F090E0B2
:10040000880F991FFC01E854FF4FA591B591FC019D
:10041000E255FF4FC591D5919FB761110CC0F8947B
:100420008C91209582238C938881282328839FBFD9
:10043000DF91CF910895623051F4F8943C91822F6E
:10044000809583238C938881822B8883F0CFF894C6
:100450008C91822B8C93EBCF1F93CF93DF93162F2E
:10046000282F30E0F901E859FF4F8491F901E45851
:10047000FF4FD491F901E057FF4FC491C115A1F08E
:1004800081110E94CB01EC2FF0E0EE0FFF1FE2552F
:10049000FF4FA591B5919FB7F8948C91111108C0A9
:1004A000D095D823DC939FBFDF91CF911F91089502
:1004B0008D2B8C93F8CFCF93DF93282F30E0F90169
:1004C000E859FF4F8491F901E458FF4FD491F901A5
:1004D000E057FF4FC491C11581F081110E94CB01FB
:1004E000EC2FF0E0EE0FFF1FEC55FF4FA591B591FB
:1004F000EC91ED2381E0E11101C080E090E0DF911B
:10050000CF910895FC01818D228D90E0805C9F4FFA
:10051000821B91098F7399270895FC01918D828D1B
:10052000981731F0828DE80FF11D858D90E00895C8
:100530008FEF9FEF0895FC01918D828D981761F0E8
:10054000A28DAE0FBF2FB11D5D968C91928D9F5FD6
:100550009F73928F90E008958FEF9FEF0895FC01B5
:10056000538D448D842F90E0252F30E0821B930B18
:10057000541710F0CF9608950197089580E194E004
:10058000892B49F080E090E0892B29F00E9410042B
:1005900081110C9400000895FC01A48DA80FB92FBF
:1005A000B11DA35ABF4F2C91848D90E001968F739B
:1005B0009927848FA689B7892C93A089B1898C91BA
:1005C000837080648C93938D848D981306C0028809
:1005D000F389E02D80818F7D80830895CF93DF9311
:1005E000EC01888D81110FC0DF91CF9108950FB676
:1005F00007FC0DC08C9185FF0AC0808185FF07C074
:10060000CE010E94CC02AA89BB89E889F9898C9124
:1006100085FDEDCF808186FFEACFE6CFEF92FF9296
:100620000F931F93CF93DF93EC01F62E81E0888F19
:100630009B8D8C8D98131AC0E889F989808185FF7C
:1006400015C09FB7F894EE89FF896083E889F9891E
:1006500080818370806480839FBF81E090E0DF9120
:10066000CF911F910F91FF90EF9008950B8D10E0A7
:100670000F5F1F4F0F731127E02E8C8D8E1579F0B1
:10068000EB8DEC0FFD2FF11DE35AFF4FF0829FB76A
:10069000F8940B8FEA89FB8980818062DCCF0FB6EA
:1006A00007FCEBCFE889F989808185FFE6CFCE0191
:1006B0000E94CC02E2CFCF92DF92EF92FF921F9383
:1006C000CF93DF93EC016A017B01122FE889F9894E
:1006D00082E08083C11481EED806E104F104A1F028
:1006E00060E079E08DE390E0A70196010E9471053A
:1006F000215031094109510956954795379527955C
:10070000211580E1380798F0E889F989108260E8BE
:1007100074E88EE190E0A70196010E9471052150D6
:100720003109410951095695479537952795EC852B
:10073000FD853083EE85FF852083188EEC89FD8949
:100740001083EA89FB89808180618083EA89FB8943
:10075000808188608083EA89FB89808180688083CA
:10076000EA89FB8980818F7D8083DF91CF911F9102
:10077000FF90EF90DF90CF9008952F932FB72F9396
:100780008F939F93EF93FF93E0913101F0913201AA
:100790008081E0913701F091380182FD19C090818C
:1007A00080913A018F5F8F7320913B01821741F056
:1007B000E0913A01F0E0EF5DFE4F958F80933A01B2
:1007C000FF91EF919F918F912F912FBF2F911895AE
:1007D0008081F6CF1F920F920FB60F9211242F93A4
:1007E0003F934F935F936F937F938F939F93AF93B9
:1007F000BF93EF93FF9381E291E00E94CC02FF91BF
:10080000EF91BF91AF919F918F917F916F915F9188
:100810004F913F912F910F900FBE0F901F90189501
:1008200081E291E00E9482029C0181E0232B09F485
:1008300080E00895E1E2F1E01382128288EE93E015
:10084000A0E0B0E084839583A683B78384E091E041
:100850009183808385EC90E09587848784EC90E099
:100860009787868780EC90E0918B808B81EC90E07D
:10087000938B828B82EC90E0958B848B86EC90E05E
:10088000978B868B118E128E138E148E0895CF92B5
:10089000DF92EF92FF920F931F93CF93DF937C0130
:1008A0006A0100E010E00C151D0551F4C801DF914C
:1008B000CF911F910F91FF90EF90DF90CF9008950F
:1008C000EB01D701ED91FC910190F081E02D699150
:1008D000C7010995892B51F30F5F1F4FBE01E3CF6D
:1008E000CF93DF93EC01DB01AB2B81F0FB01019097
:1008F0000020E9F73197AF01461B570BE881F981DA
:100900000280F381E02DDF91CF91099480E090E0A7
:10091000DF91CF910895DC01ED91FC910190F08180
:10092000E02D099462E171E00C9470042F923F92E3
:100930004F925F926F927F928F929F92AF92BF92EF
:10094000CF92DF92EF92FF920F931F93CF93DF939B
:10095000CDB7DEB7A1970FB6F894DEBF0FBECDBFFF
:100960001C01142F052FB62EA72E19A2223008F431
:100970002AE04E0181E2880E911CC22ED12CE12C7E
:10098000F12C612F702F8B2D9A2DA70196010E94BB
:100990007105412E502E6B2C7A2C122F032FB42E62
:1009A000A52E6A3030F5605DF40162934F014C145E
:1009B0005D046E047F0428F7BF01C1010E9470042A
:1009C000A1960FB6F894DEBF0FBECDBFDF91CF91D9
:1009D0001F910F91FF90EF90DF90CF90BF90AF905D
:1009E0009F908F907F906F905F904F903F902F904F
:1009F0000895695CD9CFCF92DF92EF92FF920F9367
:100A00001F93CF93DF93EC016A017B01F901EF2B78
:100A100079F4E881F9810190F081E02D642FDF9174
:100A2000CF911F910F91FF90EF90DF90CF9009949D
:100A30002A303105E9F42AE0F7FE1AC06DE20E947F
:100A40008B048C0144275527BA014C195D096E09A6
:100A50007F092AE0CE010E949604800F911FDF914A
:100A6000CF911F910F91FF90EF90DF90CF9008955D
:100A7000B701A601CE01DF91CF911F910F91FF9099
:100A8000EF90DF90CF900C9496049A01AB01770F12
:100A9000660B770B0C94FB040F931F93CF93DF939C
:100AA000D82FC92F0E9445058C018D2F9C2F0E94A5
:100AB0009204800F911FDF91CF911F910F910895A4
:100AC00008950E9490010E9460050E948C00CEEB68
:100AD000D2E00E94A5002097E1F30E94BE02F9CF68
:100AE0000895A1E21A2EAA1BBB1BFD010DC0AA1F6F
:100AF000BB1FEE1FFF1FA217B307E407F50720F087
:100B0000A21BB30BE40BF50B661F771F881F991F01
:100B10001A9469F760957095809590959B01AC014A
:100B2000BD01CF010895EE0FFF1F0590F491E02D58
:060B30000994F894FFCFC8
:100B3600000000000E034704AF02EE0282029B0291
:060B46008D020D0A000003
:00000001FF
